:020000040800F2
:100000000028002021020008C5010008CB010008DB
:10001000D1010008D7010008DD0100080000000040
:10002000000000000000000000000000E3010008E4
:10003000EF01000800000000FB01000807020008B3
:1000400069020008690200086902000869020008E4
:1000500069020008690200086902000869020008D4
:1000600069020008690200086902000869020008C4
:1000700069020008690200086902000869020008B4
:1000800069020008690200086902000869020008A4
:100090006902000869020008690200086902000894
:1000A0006902000869020008690200086902000884
:1000B00069020008690200080000000069020008E7
:1000C000690200080000000000000000690200084A
:1000D000000000006902000869020008000000003A
:1000E00069020008690200086902000800000000B7
:1000F0000000000000000000000000000000000000
:0C01000000000000000000005FF808F1A3
:10010C0010B5054C237833B9044B13B10448AFF345
:10011C0000800123237010BD0800002000000000A7
:10012C00D802000808B5034B1BB103490348AFF3D1
:10013C00008008BD000000000C000020D802000860
:10014C0080B483B000AF194B1B68184A43F004030A
:10015C001360174B1B68164A23F470031360144B7F
:10016C001B68134A43F400131360124B1A6813886C
:10017C006FF34D33138000237B6002E07B68013307
:10018C007B607B68B3F57A7FF8DB0A4B1A681388BF
:10019C0043F40053138000233B6002E03B680133BF
:1001AC003B603B68B3F57A7FF8DBDEE71810024062
:1001BC00040801400000002080B400AFFEE780B4CA
:1001CC0000AFFEE780B400AFFEE780B400AFFEE7FF
:1001DC0080B400AFFEE780B400AF00BFBD4680BC6A
:1001EC00704780B400AF00BFBD4680BC704780B480
:1001FC0000AF00BFBD4680BC704780B500AF00F0BB
:10020C002FF800BF80BD80B400AF00BFBD4680BCDE
:10021C00704700000C480D490D4A002302E0D458E9
:10022C00C4500433C4188C42F9D30A4A0A4C002334
:10023C0001E013600432A242FBD3FFF7E4FF00F0AD
:10024C0021F8FFF77DFF7047000000200800002018
:10025C00F80200080800002028000020FEE700003B
:10026C0080B400AF054B1B781A46054B1B68134432
:10027C00034A136000BFBD4680BC704704000020D9
:10028C002400002070B500260C4D0D4C641BA410EE
:10029C00A64209D100F01AF800260A4D0A4C641B3C
:1002AC00A410A64205D170BD55F8043B9847013601
:1002BC00EEE755F8043B98470136F2E7F0020008E8
:1002CC00F0020008F0020008F4020008F8B500BFC4
:1002DC00F8BC08BC9E467047F8B500BFF8BC08BC1B
:0402EC009E46704773
:0402F00031010008D0
:0402F4000D010008F0
:0802F8000C08014001000000A8
:0400000508000221CC
:00000001FF
